:0E081A00C111C110C112C113042D7551284126
:100674001207D1D2B5C2B5C210D2111206ABE4F53D
:10068400901206DE1206AB12073F12080B1205D2B7
:1006940012037B12002612076B8B238A24892512EE
:0706A400062912071180DD99
:1007D100759840759E85759D28D29CD2ACD2AFC2CA
:0407E10098C29922FF
:1006AB0030112F7810E4F208F27802E2F53108E20B
:1006BB00F53208E2F53308E2F534E4F527F528F5D1
:1006CB0029F52AF52BFF74352FF8E4F6C2110FBF6D
:0206DB0012F417
:0106DD0022FA
:060847003099FDC2992268
:06084D003098FDC2982264
:10073F003010287599FE120847E4FF742D2FF8E644
:10074F00F5991208470FBF04F2E4FF74312FF8E652
:0B075F00F5991208470FBF04F2C2100A
:01076A00226C
:0F080B0030130B7810E526F208E52CF2C2132209
:1007110030122A7599F112084785279912084785E1
:100721002899120847852999120847852A9912089C
:0E073100477860E2F52BF599120847C21222B4
:09082900120832120832120832E2
:05083200D2A2C2A222C7
:1005D200D2A2D2A4C2A430A3FD120829A2A39200DF
:1005E200200043E4F520120832A2A3920712083237
:1005F200A2A39206120832A2A39205120832A2A363
:100602009204120832A2A39203120832A2A3920207
:10061200120832A2A39201120832A2A39200120877
:0706220029E520F4F5282270
:0808370078417401F2E4F222A1
:0B07E500A2099200A200E4337842F267
:0807F00078407401F2E4F222EA
:10037B007842E4F21207F07842E4F21207F0784286
:10038B00E4F21207F07842E4F21207F07842E4F25A
:10039B001207F07842E4F21207F07842E4F2120707
:1003AB00F07842E4F21207F08546211207E5854604
:1003BB0021A2081207E7854621A20E1207E7854600
:1003CB0021A20A1207E7854621A20C1207E78546F0
:1003DB0021A20B1207E7854621A20D1207E77842EF
:1003EB00E4F21207F07842E4F21207F0854521A2FD
:1003FB000D1207E7854521A20B1207E7854521A2C0
:10040B000C1207E7854521A20A1207E7854521A2B1
:10041B000E1207E7854521A2081207E78545211231
:10042B0007E58544211207E5854421A2081207E759
:10043B00854421A20E1207E7854421A20A1207E781
:10044B00854421A20C1207E7854421A20B1207E772
:10045B00854421A20D1207E77842E4F21207F078E7
:10046B0042E4F21207F0854321A20D1207E7854300
:10047B0021A20B1207E7854321A20C1207E7854344
:10048B0021A20A1207E7854321A20E1207E7854333
:10049B0021A2081207E78543211207E585422112A5
:1004AB0007E5854221A2081207E7854221A20E1219
:1004BB0007E7854221A20A1207E7854221A20C1207
:1004CB0007E7854221A20B1207E7854221A20D12F5
:0C04DB0007E77842E4F21207F00208374D
:08083F0078447401F2E4F22296
:0B07F800A20C9200A200E4337845F24E
:0808030078437401F2E4F222D3
:100026008541211207F8854121A20B1207FA854165
:1000360021A20D1207FA854121A2091207FA85416C
:1000460021A2081207FA854121A20E1207FA85415C
:1000560021A20A1207FA7845E4F212080385412123
:10006600A20F1207FA7845E4F21208037845E4F283
:100076001208037845E4F21208037845E4F2120800
:10008600037845E4F21208037845E4F2120803788F
:1000960045E4F21208038540211207F8854021A2A3
:1000A6000B1207FA854021A20D1207FA854021A2FC
:1000B600091207FA854021A2081207FA854021A2F3
:1000C6000E1207FA854021A20A1207FA7845E4F2D1
:1000D600120803853F21A20A1207FA853F21A20EC4
:1000E6001207FA853F21A2081207FA853F21A209C5
:1000F6001207FA853F21A20D1207FA853F21A20BAE
:100106001207FA853F211207F87845E4F212080330
:10011600853E211207F8853E21A20B1207FA853E7D
:1001260021A20D1207FA853E21A2091207FA853E81
:1001360021A2081207FA853E21A20E1207FA853E71
:1001460021A20A1207FA7845E4F2120803853D2136
:10015600A20A1207FA853D21A20E1207FA853D2151
:10016600A2081207FA853D21A2091207FA853D2148
:10017600A20D1207FA853D21A20B1207FA853D2131
:100186001207F87845E4F2120803853C211207F8B5
:10019600853C21A20B1207FA853C21A20D1207FA13
:1001A600853C21A2091207FA853C21A2081207FA0A
:1001B600853C21A20E1207FA853C21A20A1207FAF3
:1001C6007845E4F2120803853B21A20A1207FA8554
:1001D6003B21A20E1207FA853B21A2081207FA85D7
:1001E6003B21A2091207FA853B21A20D1207FA85C7
:1001F6003B21A20B1207FA853B211207F87845E44A
:10020600F2120803853A211207F8853A21A20B1249
:1002160007FA853A21A20D1207FA853A21A2091298
:1002260007FA853A21A2081207FA853A21A20E1288
:1002360007FA853A21A20A1207FA7845E4F212086B
:1002460003853921A20A1207FA853921A20E12075F
:10025600FA853921A2081207FA853921A20912075F
:10026600FA853921A20D1207FA853921A20B120748
:10027600FA8539211207F87845E4F2120803853821
:10028600211207F8853821A20B1207FA853821A218
:100296000D1207FA853821A2091207FA853821A21C
:1002A600081207FA853821A20E1207FA853821A20C
:1002B6000A1207FA7845E4F2120803853721A20AE2
:1002C6001207FA853721A20E1207FA853721A208EE
:1002D6001207FA853721A2091207FA853721A20DDE
:1002E6001207FA853721A20B1207FA853721120762
:1002F600F87845E4F21208038536211207F88536A8
:1003060021A20B1207FA853621A20D1207FA8536AD
:1003160021A2091207FA853621A2081207FA8536A4
:1003260021A20E1207FA853621A20A1207FA78458B
:10033600E4F2120803853521A20A1207FA8535214F
:10034600A20E1207FA853521A2081207FA85352171
:10035600A2091207FA853521A20D1207FA85352161
:10036600A20B1207FA8535211207F87845E4F21236
:05037600080302083F2E
:10062900AB23AA24A9251207B8FF0525E5257002E1
:100639000524F9AA241207B8FEF5276327FF5327D3
:1006490003E4F520F5218E21A20F9200A20E92015A
:100659007861E2F521A20892048520296329FF53D4
:0A06690029138F2A632AFF532A1F6A
:010673002264
:0300230002057360
:0B057300C0E0C0D075D000C000C00781
:10057E00209902C299309843AF99C298EF240F6028
:10058E001724FD601714602424F76008240E702BC6
:10059E00D2118027D2108023D212801F12084D85CF
:1005AE00992C12084D859926D213800FE4FF12085C
:0B05BE004D74352FF8A6990FBF12F303
:0905C900D007D000D0D0D0E03200
:1006DE007827E4F2F2782304F27825E4F208F2089F
:1006EE0004F27823E4F27F401207927F0C120792F5
:1006FE007FFF1207927FFF12079278237401F2F2A6
:03070E00F2F222E2
:10076B007823E4F27F411207927F12120792120054
:10077B00038F081200038F0978237401F2F2F2F24F
:06078B007B007A007908F2
:010791002245
:100792007E80EED39400401DEF5E60047D018002F6
:1007A2007D007826EDF218E4F2F204F2F2E4F2EEC1
:0507B200C313FE80DD11
:0107B700221F
:10000300E4FFFEEF25E0FF7825E4F204F27828E22E
:0D001300420778257401F2E4F20EBE08E603
:0100200022BD
:030000000204E710
:0C04E700787FE4F6D8FD75814602052EF2
:1007B800BB010689828A83E0225002E722BBFE023F
:0907C800E32289828A83E4932272
:1004F300020674E493A3F8E493A34003F68001F2A5
:1005030008DFF48029E493A3F85407240CC8C33309
:10051300C4540F4420C8834004F456800146F6DFD8
:10052300E4800B010204081020408090081AE47E46
:10053300019360BCA3FF543F30E509541FFEE493CD
:10054300A360010ECF54C025E060A840B8E493A394
:10055300FAE493A3F8E493A3C8C582C8CAC583CABF
:10056300F0A3C8C582C8CAC583CADFE9DEE780BE77
:0108280000CF
:00000001FF
