:020000040000FA
:04003B00020030008F
:0D300000C0E0439A80E59A20E0FBD0E0326A
:106020000289FFE94A4B700122120073DCFF6D7098
:106030000122EF7004FBFAF92209E970EC0A80E909
:10604000D2E822020156DD3098FDAF99C2987E0059
:106050002200220201584E286E756C6C2900000047
:1060600000000000000000000000220201728843CE
:106070008F022202017A630201909102018F0C3E8D
:106080003E2000456E7465722050617373776F72A5
:10609000642000202121554E53454355524521216E
:1060A0002000636F6D6D616E640073686F7274635E
:1060B000757400636F6D6D616E642066756E6374D8
:1060C000696F6E616C206465736372697074696F67
:1060D0006E0068656C70003F00646973706C617974
:1060E0002068656C70206D657373616765732066E9
:1060F0006F72206D656E7573007265626F6F7400EC
:106100007262005265626F6F742074686520646506
:106110007669636520776974686F75742063686158
:106120006E67696E672073657474696E6773006D5E
:106130006573736167655F6672616D6573006D6637
:10614000006F757470757420746865206461746183
:106150002061727261797320686F6C64696E672068
:1061600074686520686F73742064617461005561A0
:106170007274315F52585F507472007570310064F0
:106180006973706C6179207468652055415254318F
:1061900020506F696E746572730055617274315F5F
:1061A00052585F4275660075623100646973706CA5
:1061B00061792074686520554152543120627566BA
:1061C000666572002000736574207375622D6D65BD
:1061D0006E75006D61736B0072656164206F722073
:1061E00073657420746865204950207375626E650C
:1061F00074206D61736B006465766963655F7369B4
:106200007000647369700072656164206F7220733E
:1062100065742074686520646576696365207365BC
:1062200072766572204950206164647265737300F0
:106230006465766963655F7365727665725F706FBA
:106240007274006473700072656164206F722073F1
:10625000657420746865206465766963652073657C
:106260007276657220706F7274206E756D626572E1
:10627000006465766963655F756E69636173745FF9
:10628000706F7274006475700072656164206F7263
:106290002073657420746865206465766963652081
:1062A000636C69656E7420706F7274206E756D62B8
:1062B0006572006465766963655F62726F616463CD
:1062C0006173745F706F72740064627000646576ED
:1062D0006963655F6369700064636970007265611A
:1062E00064206F722073657420746865206465761D
:1062F00069636520636C69656E7420495020616430
:106300006472657373006465766963655F636C6965
:10631000656E745F706F72740064637000686F7391
:10632000745F6369700068636970007265616420FE
:106330006F72207365742074686520686F737420B1
:10634000636C69656E742049502061646472657382
:106350007300686F73745F636C69656E745F706FF0
:106360007274006863700072656164206F722073DC
:1063700065742074686520686F737420636C696548
:106380006E7420706F7274206E756D626572006835
:106390006F73745F73697000687369700072656110
:1063A00064206F72207365742074686520686F7351
:1063B000742073657276657220495020616464723E
:1063C00065737300686F73745F7365727665725F6F
:1063D000706F7274006873700072656164206F7210
:1063E000207365742074686520686F73742073650A
:1063F0007276657220706F7274206E756D62657250
:1064000000646561646D616E5F636F756E745F7269
:106410006573657400646D63007475726E206465E5
:1064200061646D616E20636F756E74657220726554
:10643000736574206F6E2F6F666600646863705FAB
:10644000636C69656E740064686370007265616492
:10645000206F72207365742074686520444843502F
:1064600020636C69656E7420737461746500736574
:10647000745F64656661756C747300736400736146
:106480007665207468652063757272656E74206429
:1064900063622073657474696E677320617320741E
:1064A00068652064656661756C742064636200666B
:1064B00069726D776172655F75706461746500669D
:1064C000777500757064617465206669726D7761B7
:1064D00072650066696C6C0066696C6C206D656D38
:1064E0006F7279206265747765656E2074776F20AE
:1064F000616464726573736573207769746820647E
:106500006174610072657365740072737400526522
:106510007365742064657669636520736574746956
:106520006E677320746F2064656661756C747300A8
:1065300072657365745F656570726F6D0072656D0D
:10654000005265736574206570726F6D20746F20E2
:10655000746865206F656D2073657474696E677308
:1065600000636865636B73756D00637300726563C8
:10657000616C63756C617465207468652064636226
:1065800020636865636B73756D20616E6420736151
:10659000766520746F2064636200636F6E6669675E
:1065A00075726174696F6E5F6C656E6774680063A5
:1065B0006C006368616E676520746865206C656E49
:1065C000677468206F6620746865206463622028A1
:1065D0006D617820006E616D650072656164206F89
:1065E00072207365742074686520646576696365DC
:1065F000206E616D65006D61630072656164206F7E
:10660000722073657420746865204D414320616475
:106610006472657373007472616E736D69745F6D1B
:106620006F64650074786D0073657420746865200C
:1066300064657669636520746F20686F7374206485
:10664000617461207472616E736D6974206D65741C
:10665000686F64007265706F72745F6D6574686FE7
:10666000640069726D0073657420746865206465E8
:1066700076696365207573657220696E7075742024
:106680007265706F7274696E67206D6574686F648F
:106690000064656275675F6D6F64650064626700C2
:1066A0007475726E206465627567206D6F646564D1
:1066B000206F6E2F6F66660073686F775F64657614
:1066C0006963655F636F6E66696700646362007328
:1066D000686F7720746865206465766963652063F8
:1066E0006F6E66696775726174696F6E20626C6F38
:1066F000636B00757365725F646174616772616D6D
:106700005F70726F746F00756470007472616E7385
:106710005F636F6E74726F6C5F70726F746F007412
:1067200063700062726F61646361737400626363BB
:106730000075706461746500757500726561640050
:1067400072640072656164204932432045455052AD
:106750004F4D206D656D6F727900777269746500B9
:106760007772007772697465206461746120746F58
:10677000207468652049324320454550524F4D00F2
:10678000416D626967756F757320636F6D6D616EC2
:10679000643A202573200A0D00556E6B6E6F776E7C
:1067A00020636F6D6D616E643A2025730A0D000AD7
:1067B00053494D54454B20494E432E20646576691C
:1067C000636520636F6E66696775726174696F6E69
:1067D000206D656E7520282573202573290A0D0A02
:1067E0000D20200030352F30332F31390031383A29
:1067F00030353A3031002028002920202020202068
:106800002020202020202000000025730A0D202DAC
:106810002D2D2D2D2D2D2D2D2D2D2D2D2D2D2D2DA8
:106820002D2D2D2D2D2D2D2D2D2D2D2020202D2DBF
:106830002D2D2D2D2D2D2D2D2D2D2D2D2D2D2D2D88
:106840002D2D2D2D2D2D2D2D2D2D2D2D2D2D2D2D78
:106850002D2D2D2D2D2D2D2D2D0A0D002900202023
:10686000252D323773202D2025730A0D000A0D00C7
:10687000556E6B6E6F776E2068656C7020706172FC
:10688000616D657465722025730A0D00557361672B
:1068900065203A2072656164203C646576696365B1
:1068A00020616464726573733E203C6D656D6F7228
:1068B0007920616464726573733E203C6D656D6F11
:1068C0007279206C656E6774683E0A0D00446576C7
:1068D0006963652061646472657373206572726FA9
:1068E000722E0A0D0025730A0054686520646576CF
:1068F0006963652061646472657373206973206FD6
:106900007574206F662072616E67652E0A0D004EE9
:106910006F206D656D6F7279206164647265737349
:10692000207370656369666965640A0D004D656D65
:106930006F72792061646472657373206572726F1F
:10694000722E0A0D00546865206D656D6F72792096
:1069500061646472657373206973206F7574206F4E
:10696000662072616E67652E0A0D004E6F2072659B
:106970006164206C656E6774682073706563696616
:106980006965640A0D004D656D6F7279206C656EE6
:10699000677468206572726F722E0A0D006C656EE6
:1069A000677468203D20256C750A0D0054686520C9
:1069B0006C656E677468206973206F7574206F66EC
:1069C0002072616E67652E0A0D0020416464726555
:1069D000737320202020303020303120303220309E
:1069E00033203034203035203036203037203038D6
:1069F00020303920304120304220304320304420A4
:106A000030452030460A0D00202020202020202064
:106A1000207C2D2D2D2D2D2D2D2D2D2D2D2D2D2D64
:106A20002D2D2D2D2D2D2D2D2D2D2D2D2D2D2D2D96
:106A30002D2D2D2D2D2D2D2D2D2D2D2D2D2D2D2D86
:106A40002D2D2D2D0A0D0020416464726573732075
:106A500020202000253032627820002020202020B5
:106A6000202020207C2D2D002D2D2D00203078255C
:106A70003034647820207C202000526561642045F9
:106A800072726F722E0A005573616765203A20702A
:106A90007772203C64657669636520616464726521
:106AA00073733E203C6D656D6F7279206164647212
:106AB0006573733E203C6D656D6F727920646174FF
:106AC000613E0A0D004E6F206D656D6F7279206416
:106AD000617461207370656369666965640A0D009D
:106AE0004D656D6F72792064617461206572726F9B
:106AF000722E0A0D00546865206461746120697308
:106B0000206F7574206F662072616E67652E0A0DA6
:106B10000057726974652041646472657373203A2A
:106B200020256C780A0D00577269746520446174E1
:106B300061203A20005772697465204572726F7245
:106B40000055736167652020202020202020202010
:106B50003A0A0D00777269746520746F2070726F45
:106B60006D20203A202573203C73746172745F613C
:106B70006464723E203C656E645F616464723E20B2
:106B80003C646174613E0062616420617267756D8E
:106B9000656E7420310A0D00626164206172677550
:106BA0006D656E7420320A0D006261642061726747
:106BB000756D656E7420330A0D00636861726163E0
:106BC000746572203A2025303262780A0D007374A1
:106BD00061727420202020203A2025303262780A09
:106BE0000D00656E64202020202020203A202530D2
:106BF0003264780A0D006C656E677468202020206E
:106C00003A202564750A0D0072616E676520657211
:106C1000726F720A0D00756E61626C6520746F2070
:106C2000616C6C6F63617465207265717569726502
:106C300064206D656D6F72792073697A65006C658B
:106C40006E202020202020203A202564640A0D2573
:106C500073000A0D2573000D00256300082008004D
:106C60004E6F206D6F726520726F6F6D20666F7250
:106C7000206D656E7520616464696E670A005379E2
:106C80007374656D206572726F722C2066756E6309
:106C900074696F6E203C5554494C5F53746F6F6735
:106CA00065733E2073686F756C64206E6F7420622C
:106CB000652063616C6C65640A00252D3234733A7B
:106CC00000202530326278000A0D252D3234733AC7
:106CD0000000636865636B73756D20757064617423
:106CE00065640A0D00444342204C656E6774680079
:106CF0003031323334353637383920000A0D496E99
:106D000076616C6964206368617261637465722086
:106D1000696E20495020616464726573732E20543B
:106D200068652076616C6964206368617261637470
:106D300065722073657420697320273031323334D3
:106D40003536373839202E270A0D000A0D496E7660
:106D5000616C696420636861726163746572206943
:106D60006E20706F7274206E756D6265720A0D0010
:106D70005468652076616C69642063686172616340
:106D80007465722073657420697320273031323343
:106D900034353637383920270A0D006D6163203AC3
:106DA000200052656164204572726F722E00726518
:106DB00061642066726F6D2070726F6D203A206D75
:106DC00061630A0D00777269746520746F207072B8
:106DD0006F6D20203A206D6163203C6F6374657491
:106DE000313E203C6F63746574323E203C6F6374A7
:106DF0006574333E203C6F63746574343E203C6F91
:106E000063746574353E203C6F63746574363E0070
:106E1000526561642D4261636B204572726F72002E
:106E2000496E636F6D706C657465204D41432061E0
:106E30006464726573733F0A0D0055736167652062
:106E40003A206D6163203C6F63746574313E203C71
:106E50006F63746574323E203C6F63746574333EB7
:106E6000203C6F63746574343E203C6F63746574BA
:106E7000353E203C6F63746574363E002573203ABE
:106E800020257320282530346478290072656164D8
:106E90002066726F6D2070726F6D203A2025730A24
:106EA0000D00777269746520746F2070726F6D20A9
:106EB000203A202573203C25732F25733E00526510
:106EC0006164204572726F72004448435020436CE5
:106ED00069656E740064697361626C6500656E61FA
:106EE000626C65005544502050726F746F636F6C14
:106EF000006F6666006F6E005443502050726F74CE
:106F00006F636F6C005544502042726F646163611F
:106F100073747320526563696576656400547261A9
:106F20006E736D6974204D6F64650073657276656C
:106F30007200636C69656E74005265706F727420C4
:106F40004D6574686F6400706F6C6C656400726589
:106F5000616C74696D65004465627567204D6F648E
:106F60006500446561646D616E20436F756E746584
:106F700072005374617475735273700044696D6D5F
:106F8000696E6752657100446973706C617952650E
:106F900067004669726D7761726552737000726442
:106FA000203020302031303000006E616D65203A95
:106FB00020257300726561642066726F6D207072A7
:106FC0006F6D203A206E616D650A0D0077726974ED
:106FD0006520746F2070726F6D20203A206E616D95
:106FE00065203C63686172313E202E2E2E203C636A
:106FF00068617231353E0A0D002573203A202569FB
:107000007000777269746520746F2070726F6D20E4
:10701000203A202573203C6F63746574313E2E3C0A
:107020006F63746574323E2E3C6F63746574333ED7
:107030002E3C6F63746574343E00496E636F6D70EF
:107040006C657465204950763420616464726573A0
:10705000733F0A0D005573616765203A20686F73AE
:10706000745F6970203C6F63746574313E2E3C6FB1
:1070700063746574323E2E3C6F63746574333E2EC8
:107080003C6F63746574343E0044657669636520C3
:107090005365727665722049500044657669636570
:1070A00020436C69656E7420495000486F737420EA
:1070B000436C69656E7420495000486F73742053A7
:1070C0006572766572204950005375626E65742052
:1070D0004D61736B002573203A200025647500779D
:1070E0007269746520746F2070726F6D20203A2071
:1070F0002573203C776F72643E00496E76616C693F
:10710000642063686172616374657220696E2070C7
:107110006F7274206E756D6265723F0A0D00557353
:10712000616765203A202573203C776F72643E00CA
:107130004465766963652053657276657220506F89
:1071400072740044657669636520436C69656E748A
:1071500020506F72740044657669636520556E69CE
:107160006361737420506F7274004465766963655F
:107170002042726F61646361737420506F72740097
:10718000486F73742053657276657220506F727405
:1071900000486F737420436C69656E7420506F7281
:1071A000740064656661756C7473207570646174D5
:1071B00065642073756365737366756C6C790044E0
:1071C000656661756C74204443422057726974652A
:1071D000204572726F720044434220526561642000
:1071E0004572726F72005265736574207468652011
:1071F00064657669636520746F20746865206465D2
:107200006661756C742073657474696E67730A0DBA
:10721000005265626F6F74207468652064657669DA
:10722000636520776974686F757420736176696E21
:1072300067206368616E6765730A0D00252D32341F
:10724000733A202564780A0D00436865636B5375B3
:107250006D00252D3234733A202564750A0D0043E4
:1072600066674C656E67746800252D3234733A206A
:1072700025730A0D00446576696365204E616D656E
:10728000004E6574776F726B004F7074696F6E009B
:1072900045746865726E6574547854696D657200E2
:1072A00025732573006D617463680A0D006E6F208D
:1072B0006D617463680A0D0021BC0000300000B0ED
:1072C00068C25000F20510E01D198700FFFFFFFFA4
:1072D00010070CA8C000FFFFFF04FFFFFFFFFFFF28
:1072E000FFFFFFFFFFFFFFFF03F4004A31302D389F
:1072F0003536362D30312023313031000050C26810
:10730000B129C0A80C01C0A80C02C0A80C04C0A8D8
:107310000C03FFFFFF000000000000000000C74C4E
:1073200062246222C74EC74FC74D000000490000CB
:1073300000EB7008E709F608DFFA801B89828A8370
:107340001410E70AF593E0A3F608DFFA8009F59335
:10735000E493A3F608DFF9ECFAA9F0EDFB2288F03C
:10736000EF60010E4E60F088F0ED60C51410E7E7A5
:10737000CB700E88828C838B93E709F0A3DFFA80B1
:10738000D61410E72A89828A83F593ECFAE0A3C821
:10739000C582C8CCC583CCCBC593CBF0A3C8C5826E
:1073A000C8CCC583CCCBC593CBDFE2DEE080AA8915
:1073B000828A83F593ECFAE493A3C8C582C8CCC54E
:1073C00083CCCBC593CBF0A3C8C582C8CCC583CC36
:1073D000CBC593CBDFE1DEDF02007359EB7002E730
:1073E0002289828A831410E704F593E022F593E45E
:1073F0009322F8EB7006E7C828F3E82289828A8393
:107400001410E708F593E0C828F0E822F593E49318
:1074100022BB000327F722F8EB89828A831410E746
:1074200006F593E028F022F593E4932822BB0002AE
:10743000F722BB8000500989828A838B931593F0D1
:1074400022EF8DF0A4A8F0CF8CF0A428CE8DF0A46C
:107450002EFE22C5F0F8A3E028F0C5F0F8E582156D
:107460008270021583E038F022A3F8E0C5F025F021
:10747000F0E582158270021583E0C838F0E822EB4F
:107480007007E7F5F009E7192289828A831410E76B
:1074900008F593E0F5F0A3E022F593E493F5F0749A
:1074A000019322BB000B09C5F027F7C5F01937F788
:1074B00022F8EB89828A831410E707F593E802002B
:1074C0007453F59374019325F0F5F0E4933822BBDF
:1074D0000006F709A7F01922BB8000500D89828AA7
:1074E000838B931593F0E5F0A3F022E88FF0A4CC02
:1074F0008BF0A42CFCE98EF0A42CFC8AF0EDA42CDB
:10750000FCEA8EF0A4CDA8F08BF0A42DCC3825F0A9
:10751000FDE98FF0A42CCD35F0FCEB8EF0A4FEA994
:10752000F0EB8FF0A4CFC5F02ECD39FEE43CFCEAA1
:10753000A42DCE35F0FDE43CFC2275F008758200E8
:10754000EF2FFFEE33FECD33CDCC33CCC58233C528
:10755000829BED9AEC99E58298400CF582EE9BFEB9
:10756000ED9AFDEC99FC0FD5F0D6E4CEFBE4CDFA14
:10757000E4CCF9A88222B800C1B90059BA002DECB8
:107580008BF084CFCECDFCE5F0CBF97818EF2FFF50
:10759000EE33FEED33FDEC33FCEB33FB10D70399F8
:1075A0004004EB99FB0FD8E5E4F9FA227818EF2FA5
:1075B000FFEE33FEED33FDEC33FCC933C910D705C4
:1075C0009BE99A4007EC9BFCE99AF90FD8E0E4C9E3
:1075D000FAE4CCFB2275F010EF2FFFEE33FEED3313
:1075E000FDCC33CCC833C810D7079BEC9AE8994040
:1075F0000AED9BFDEC9AFCE899F80FD5F0DAE4CDA2
:10760000FBE4CCFAE4C8F922CFF4CFCEF4CECDF42B
:10761000CDCCF4CC22C3E49FFFE49EFEE49DFDE4C8
:107620009CFC22EB9FF5F0EA9E42F0E99D42F0ECD3
:107630006480C864809845F022EB9FF5F0EA9E4292
:10764000F0E99D42F0E89C45F022E8600FECC3139E
:10765000FCED13FDEE13FEEF13FFD8F122E8600FEF
:10766000EFC333FFEE33FEED33FDEC33FCD8F122F4
:10767000EB7006E9F802007ACB89828A831410E75E
:1076800006F59302007AD7F59302007AE3BB000671
:10769000E9F802007AF3BB8000500C89828A838B60
:1076A000931593020076DD227401FF3395E0FEFD11
:1076B000FCA3A3A3E0CF2FF0E5821582700215830F
:1076C000E0CE3EF0E582158270021583E0CD3DF0FC
:1076D000E582158270021583E0CC3CF022ECF0A329
:1076E000EDF0A3EEF0A3EFF022A42582F582E5F001
:1076F0003583F58322EB7006E9F802007AFF898270
:107700008A831410E706F59302007B08F5930200C4
:107710007B31D093D083D082F8E4937012740193BC
:10772000700DA3A393F8740193F5828883E47374B6
:1077300002936860EFA3A3A380DF8B938A8389827F
:10774000159353937FE473EB7008E709F60870FA1A
:10775000801B89828A831410E70AF593E0A3F60858
:1077600070FA8009F593E493A3F60870F9ECFAA98E
:10777000F0EDFB2288F0ED60CE1410E7F0CB700E38
:1077800088828C83F593E709F0A370FA80DF1410E8
:10779000E72889828A83F593ECFAE0A3C8C582C8FA
:1077A000CCC583CCCBC593CBF0A3C8C582C8CCC510
:1077B00083CCCBC593CB70E280B589828A83F59365
:1077C000ECFAE493A3C8C582C8CCC583CCCBC593DF
:1077D000CBF0A3C8C582C8CCC583CCCBC593CB7036
:1077E000E1808CEB700C87F009E608B5F019DFF644
:1077F000801589828A831410E711F593E0F5F0A3D0
:10780000E608B5F002DFF502007894F593E493F50D
:10781000F0A3E608B5F07DDFF48079CB70138882A1
:107820008C838B9387F009E493A3B5F067DFF58031
:10783000631410E73089828A83F593ECFAE0F5F05F
:10784000A3C8C582C8CCC583CCCBC593CBE493A3D6
:10785000C8C582C8CCC583CCCBC593CBB5F035DFCA
:10786000DCDEDA802F89828A83F593ECFAE493F5E3
:10787000F0A3C8C582C8CCC583CCCBC593CBE49359
:10788000A3C8C582C8CCC583CCCBC593CBB5F00407
:10789000DFDBDED97FFFB5F0020F2240027F01223D
:1078A000020077E30200781B88F0EF60010E4E6063
:1078B000EEED60EC1410E7ECCB701288828C83F54F
:1078C0009387F009E0A3B5F0CBDFF680C71410E78B
:1078D0002F89828A83F593ECFAE0F5F0A3C8C5827C
:1078E000C8CCC583CCCBC593CBE0A3C8C582C8CCDC
:1078F000C583CCCBC593CBB5F09ADFDDDEDB8094BE
:1079000089828A83F593ECFAE493F5F0A3C8C582E3
:10791000C8CCC583CCCBC593CBE0A3C8C582C8CCAB
:10792000C583CCCBC593CBB5F004DFDCDEDA020037
:107930007894EF60010E4E6027EB7009E76D6024CC
:1079400009DFF9801B89828A831410E718F593E018
:107950006D7008AB930BAA83A98222A3DFF1DEEF3F
:10796000E4F9FAFB22F593E4936D7007E593248123
:10797000FB80E3A3DFF1DEEF80E6EF4E6022EF60F5
:10798000010EEDBB0007F709DFFCA9F022BB800068
:10799000500E89828A838B931593F0A3DFFCDEFA65
:1079A00022EB701BE9D398500EE92FF9E82FF81954
:1079B000E718F6DFFA8025E709F608DFFA801D8967
:1079C000828A831410E70AF593E0A3F608DFFA80B1
:1079D0000B89828A83E493A3F608DFF9ECFAA9F015
:1079E000EDFB2288F08E83EF60010E4E60EE88F092
:1079F000ED60AE1410E7E5CB700E88828C838B931C
:107A0000E709F0A3DFFA80D41410E766F593D3E911
:107A100098EA9CE5939B505CE82FF8EC3583FCE4F6
:107A20003BFBE92FF582EA3583F583E43593F59343
:107A30000582D582090583D58302159315831582A6
:107A4000E0C8C582C8CCC583CCCBC593CB0582D555
:107A500082090583D58302159315831582F0C8C565
:107A600082C8CCC583CCCBC593CBDFC4DEC20200B9
:107A700079DE802A89828A83ECFAE0A3C8C582C8AD
:107A8000CCC583CCCBC593CBF0A3C8C582C8CCC52D
:107A900083CCCBC593CBDFE2DEE0020079DE8982C6
:107AA0008A83F593ECFAE493A3C8C582C8CCC58356
:107AB000CCCBC593CBF0A3C8C582C8CCC583CCCBF7
:107AC000C593CBDFE1DEDF020079DEE6FC08E6FDF0
:107AD00008E6FE08E6FF22E0FCA3E0FDA3E0FEA32B
:107AE000E0FF22E493FC740193FD740293FE74039F
:107AF00093FF22ECF608EDF608EEF608EFF622E624
:107B0000FB08E6FA08E6F922E0FBA3E0FAA3E0F9B5
:107B100022F8E0FBA3A3E0F925F0F0E582158270DE
:107B2000021583E0FA38F022EBF0A3EAF0A3E9F0C3
:107B300022E493FB740193FA740293F922BB001CB4
:107B4000D093D0F0D0E0F8D0E0C9FBD0E0FAD0E09C
:107B5000CBC8C0E0C0F0C09302007B91BB80005056
:107B600022D093D0F0D0E0F8D0E0C9F582D0E0CABE
:107B7000F583D0E0CB14C8C0E0C0F0C09388930276
:107B8000007B28D093D083D082D0E0D0E0D0E0E456
:107B900073EBF608EAF608E9F622412B8600412A43
:107BA0000900412A0A00412A0700412A0800412A07
:107BB0000B00412A0600422890000042288B00005A
:107BC00041289200412B9200422AF90000442ABC2D
:107BD00000000000422AC20001412AC119412AC006
:107BE00001421EE40000421EF40000421EF20000AA
:107BF000411EE800421EE00000421EEA0000421E54
:107C0000EC0000421EE60000421EF80000421EF694
:107C10000000411EE900421EE20000421EEE00008C
:107C2000421EF000004120BA0042135800004213E7
:107C3000CD000042170800004216B800006029136A
:107C4000D150305F302C50305F312C50305F322CAF
:107C500050305F332C50305F342C50305F352C5017
:107C6000305F362C50305F372C00602913FA5031CA
:107C70005F302C50315F312C50315F322C50315FEE
:107C8000332C50315F342C50315F352C50315F36FE
:107C90002C50315F372C006029142350325F302C78
:107CA00050325F312C50325F322C50325F332C50C7
:107CB000325F342C50325F352C50325F362C5032CC
:107CC0005F372C00602A144C50335F302C50335FE8
:107CD000312C50335F322C50335F332C50335F34B0
:107CE0002C50335F352C50335F362C50335F372C9C
:107CF00000004216B6100441134F00410F670041C7
:107D0000135000410F1E0041134E00411008004661
:107D100022D300123456789A46233900000000001E
:107D200000412331004302D60102DB4300A30102DC
:107D3000DB4300940102DB4823F54153495858497D
:107D40005341430E940108CE4C1A1853696D746563
:107D50006B6B65746D6953412BA001411EDB0042C2
:107D60001EAB0000411EAD00441EDC0000000046BA
:107D70001ED500000000000041284A0041284B01A8
:107D800041284500422843000044283F00000003EA
:107D900044284600000000411A080A43170C81607D
:107DA0007F431985000000421A090000431A0E8122
:107DB0006083431A0B81609361E017A58160A28103
:107DC00060AA0000008160B38160D28160D78240E8
:107DD000608160D98160F9816100829128816103AD
:107DE00081612F81613E826FF481614181616E8189
:107DF000617B82945581617F81619A8161A78293C1
:107E0000088161AB000000000000000000000000DD
:107E10008161C400000082931F8161C68161D3002B
:107E20000000828E5E8161D88161F7816202828D5D
:107E3000CA816207816230816243828BFF8162471F
:107E4000816271816285828C4D8162898162B38198
:107E500062C9828C748162898162CD8162D8828D8F
:107E6000EF8162DD816306816319828C26816289DC
:107E700081631D816326828E1481632B816352810D
:107E80006363828CC281636781638F816398828E12
:107E90003981639D8163C48163D5828C9B8163D961
:107EA00081640181641582887181641981643B81D8
:107EB000644781FFBC81644C81646E81647B825223
:107EC0005381647E8164AF8164BF828E838164C389
:107ED0008164D300000081F3988164D881650481B6
:107EE000650A82911381650E81653081653D8282CC
:107EF000DA81654181656181656A8281A781656DED
:107F000081659A8165AF828BD88165B28165D50024
:107F1000000082434D8165DA8165F600000082131E
:107F2000678165FA816616816624827ECE81662825
:107F3000816654816662827DF9816666816691817F
:107F4000669C8288448166A08166B88166CB822E59
:107F5000FF8166CF8166F38167078287BD81644CAC
:107F600081670B81671F8287EA81644C8167238167
:107F7000672D82881781644C816731816738828ED2
:107F8000838164C381673B81674081CAE181674324
:107F900081675A81676081D69E816763004829DBCB
:107FA0000000000000000000E5082448F582E434E9
:107FB00026F583759300E0050822900026453017CA
:107FC0000490002648E475F00112007B1102007352
:107FD000DC2010E57F2ED2108018EF540F2490D4AF
:107FE0003440D4FF30140BEF24BFB41A00500324E4
:107FF00061FFE50960021509050CE50C7002050B2F
:1080000030171190002645E475F00112007B11EF46
:108010000200742D02008CDA7403D2178003E4C2CC
:1080200017F5089000264512007B28E4F509F50BAA
:10803000F50CE50960087F2012007FF280F4750AD4
:10804000FFC211C210C212C213C215C216C2181248
:10805000007FBAFF700E3017067F0012008003AF5A
:108060000CAE0B22B42563C2D5C21412007FBAFF36
:1080700024D0B40A00501A75F00A780930D50508E2
:10808000B6FF0106C6A426F620D5047002D21380DE
:10809000D824CFB41A00EF5004C2E5D214020082F3
:1080A00030D21180C4D21080BED21280BAD2D58014
:1080B000B8D21580B27F2012007FF220120774011F
:1080C000B5090040F012007FA8FF12007FF2020005
:1080D0008032D218D216808F12007FA8FB12007F48
:1080E000A8FA12007FA8F94A4B700679077A837BB9
:1080F0008120123DE50960397E00E9C0E02EF9EAF1
:10810000C0E03400FA120073DCF9D0E0FAD0E0C924
:1081100060060EEE650A70E2C2D5EBC0E0EAC0E090
:10812000E9C0E0EE12008278D0E0F9D0E0FAD0E0C9
:10813000FB120073DCFF6096EBC0E0EAC0E0E9C030
:10814000E012007FF2D0E02401F9D0E03400FAD050
:10815000E0FBE50A0460DAD50AD7020080CE7BFF97
:108160007A827974D2128089791080027908C216D5
:10817000C2188008D2D5790A8004790AC2D5E50AE6
:10818000047002F50AE4FAFDFEFF12007FA8FC7BF2
:108190000820111612007FA8FD7B1030100C120071
:1081A0007FA8FE12007FA8FF7B20EC3382D592D5FA
:1081B0005013C3E43010069FFFE49EFEE420110339
:1081C0009DFDE49CFCE4CBF8C211EC700CCFCECD4D
:1081D000CCE824F8F870F38017C3EF33FFEE33FEDA
:1081E000ED33FDEC33FCEB33FB994002FB0FD8E998
:1081F000EB301105F8D0E0C448B211C0E00AEC4DF4
:108200004E4F78207B0070C2EAB50A0040BCC0E047
:108210001200827AD0F0D0E0201104C4C0E0C4B2D1
:1082200011C0F012007FDBD0F0D5F0EA02008032FE
:108230001200771280D85381685880A54C80A142E3
:10824000816C4F81744481744980BB43817A55812C
:108250005E46815E45815E4783245080A92D80ADB6
:108260002E80D42B80B12380D22083102A806748AF
:10827000000080CA3F3F3F00790AA2D52013143086
:108280001509B910020404B9080104A2D520160288
:1082900050010420126D9212B509005036C0E07FE3
:1082A0002030131A7F30A21272167215501012006D
:1082B00082D3C212C216C215C2187F308010301588
:1082C00003E9C0E012007FF2301503D0E0F9D0E0FE
:1082D000B509CA3015197F30B9100D12007FF27F31
:1082E000583014077F788003B9080412007FF230F9
:1082F00012067F2D02007FF27F202018F77F2B20AF
:1083000016F222921280CC286E756C6C2900D21164
:1083100012007FA83011F7C211780930D50108F694
:108320000200806712007FA87F4960087F4310E742
:10833000027F5814C0E0EF12007FE3743A12007F0E
:10834000E3D0E0600DC0E0C412007FDBD0E012009B
:108350007FDBD21375090402008168495020203A5E
:10836000202562752E2562752E2562752E25627573
:108370000A0D00F000FE7550482D000000000000BE
:10838000000000F1000000000000F30000F4000015
:1083900000F50000000000000000000000000000E8
:1083A00000000000007543204D6173746572204623
:1083B00069726D77617265202020504E203A20004E
:1083C00025303262782D00253032627800203A2044
:1083D00025630A0D00754320536C6176652046695C
:1083E000726D7761726520202020504E203A200067
:1083F0004650474120536C617665204669726D771F
:108400006172652020504E203A20002A2A2A2A2A0A
:108410002A2A2A2A2A2A2A2A2A2A2A2A2A2A2A2ABC
:108420002A2A2A2A2A2A2A2A2A2A2A2A2A2A2A2AAC
:108430002A2A2A2A2A2A2A2A2A2A2A2A2A2A2A2A9C
:108440000A0D00446562756720526F7574696E6528
:1084500073202020202020202020203A2000646942
:108460007361626C65640A0D00656E61626C6564BF
:108470000A0D005472616E736D6974204D6F6465EE
:1084800020202020202020202020203A200053657A
:10849000727665720A0D00436C69656E740A0D0090
:1084A00045746865726E6574204C696E6B205370FC
:1084B000656564203D206270730A0D004448435096
:1084C0002020202020696E69742020202020202078
:1084D000202020203A2000706173730A0D002A2AA0
:1084E0004552524F522A2A0A0D0044484350204117
:1084F000737369676E6564204950202020203A20FC
:10850000004448435020726573706F6E7365202D70
:108510002D2000206661696C210A0D00496E73747C
:1085200072756D656E742050617274204E756D6247
:10853000657220203A2025730A0D0031302D38361F
:108540003635004669726D77617265204C617374CF
:1085500020526576697365642020203A20257320B7
:1085600025730A0D004D61792030332032303139C6
:108570000031393A30393A31310045746865726EEC
:108580006574204C696272617279205665722E2082
:1085900020203A2025730A0D00332E312E32303040
:1085A00000554152542D30202020696E69742020DE
:1085B0002020202020202020203A2070617373206A
:1085C00020202000626175643D25326278200A0D0A
:1085D00000554152542D31202020696E69742020AD
:1085E0002020202020202020203A20706173730A50
:1085F0000D00486172647761726520696E6974204C
:10860000202020202020202020203A207061737319
:108610000A0D005265616420636F6E66696775724A
:108620006174696F6E2064617461203A2000526544
:1086300061642064656661756C7420636F6E666941
:108640006775726174696F6E20646174612E200AAF
:108650000D006661696C656421202877726F6E6712
:1086600020636865636B73756D290A0D00496E762A
:10867000616C696420636F6E6669677572617469A5
:108680006F6E2064617461210A0D00706173732044
:1086900020206C656E203D2025303564750A0D0064
:1086A0004661696C656420746F2070726F677261D7
:1086B0006D20436F6E666967726174696F6E2044E6
:1086C00061746121210A0D0020204465766963658B
:1086D000204E616D65202020202020202020202099
:1086E0003A20002563000A0D0020204D414320411F
:1086F00064647265737320202020202020202020B5
:10870000203A20002530326278200020204E657407
:10871000776F726B2053657474696E6773202020C5
:108720002020203A200025303464780D0A002020D3
:1087300020205365727665722F436C69656E7420D4
:108740002020202020203A20436C69656E74002090
:108750002020205365727665722F436C69656E74B4
:10876000202020202020203A205365727665720058
:10877000202020204448435020202020202020205A
:1087800020202020202020203A20456E61626C6548
:108790006400202020204448435020202020202016
:1087A000202020202020202020203A2044697361AE
:1087B000626C656400202020205544502020202039
:1087C000202020202020202020202020203A204F60
:1087D0006E002020202055445020202020202020E2
:1087E000202020202020202020203A204F666600D4
:1087F00020202020202020202020544350202020F2
:108800002020202020203A204F6E002020202020F1
:1088100020202020202020202020544350202020D1
:108820003A204F6666002020202042726F61644328
:1088300061737420202020202020202020203A2036
:108840004F6E002020202042726F61644361737478
:1088500020202020202020202020203A204F666643
:1088600000202044657669636520536572766572E1
:108870002049502020202020203A20002562752EFB
:1088800000256275002000506F727420203A20008D
:10889000256475002020486F7374205365727665D7
:1088A0007220495020202020202020203A200055EE
:1088B000445020686F737420636C69656E74207314
:1088C0006F636B657420696E697420002A2A4552B3
:1088D000524F522120554E41424C4520544F204387
:1088E000524541544520534F434B45542A2A0A0DC3
:1088F000006F6B2E20706F7274203A202564750A09
:108900000D0055445020646174612000706F7274D2
:1089100020202020202020202020203A202A2A4207
:10892000494E44494E47204552524F52212A2A0A65
:108930000D0073657276657220706F72742020204E
:10894000203A202564750A0D0073657276657220E1
:10895000706F7274202020203A202A2042494E4411
:10896000494E47204552524F5221202A0A0D00639A
:108970006C69656E7420706F727420202020202036
:108980003A202564750A0D004E6577205544502025
:10899000636F6E6E656374696F6E203A2069643D23
:1089A0002562752C2072656D6F7465506F72743D11
:1089B0002564752C20736F636B65743D2562750AA1
:1089C0000D0054435049505F556470436C6F73659C
:1089D0002869643D2562752C20736F636B65743D57
:1089E000256275290A0D000D20202020202020203E
:1089F000202020202020202020202020200D007555
:108A0000EBAA75EB55759D02787FE4F6D8FD9000D2
:108A100000007F007E807D01E4F0A3DFFCDEFADD54
:108A2000F8750D66750ED875818402008A580201AA
:108A30000E51E493A3F85407240CC8C333C4540F55
:108A40004420C8834004F456800146F6DFE4800CDD
:108A5000010204081020408090007B9AE47E01937C
:108A600060CCA3FF543F30E509541FFEE493A3609C
:108A7000010ECF54E0B4E026E493FBA3E493FAA301
:108A8000E493F9A3E493C083C0821200742DD082D2
:108A9000D083A309E970010ADFEADEE880BE54C092
:108AA00025E0602B408CE493A3FAE493A3F8E493CD
:108AB000A3C8C582C8CAC583CA759300F075930060
:108AC000A3C8C582C8CAC583CADFE3DEE1808DE4DE
:108AD00093A3F8E493A34003F68001F208DFF402C5
:108AE000008A5C2D2D527848656164202564752CC0
:108AF0002052785461696C202564752C205278438B
:108B00006E74202564752D2D0A0D000A0D25303454
:108B10006478203A00202530326278000A0D002D5A
:108B20002D5278486561642025303464782C2052B9
:108B3000785461696C2025303464782C2052784355
:108B40006E74202564752D2D20000A0D2A2A2A2AEC
:108B50002A2A2A2A2A2A2A2A2A2A2A2A2A2A2A2A75
:108B60002A2A2A2A2A2A2A2A2A2A2A2A2A2A2A2A65
:108B70002A2A2A2A2A2A2A2A2A2A2A2A2A2A2A2A55
:108B80002A2A2A2A2A2A2A2A2A2A2A2A2A2A2A2A45
:108B90002A2A2A2A0A0D0055445020756E696361FD
:108BA000737420706F727420202020202020203ABF
:108BB0002000202A2A42494E44494E47204552521D
:108BC0004F52212A2A0A0D002564750A0D002A2019
:108BD00042494E44494E47204552524F5221202A85
:108BE0000A0D006256616C6964526571203D205423
:108BF00052554520262620006644656275674D6FF4
:108C00006465203D204F4E20262620004C656E676F
:108C10007468203D20476F6F640A0D004C656E67D5
:108C20007468203D204261640A0D00554450206262
:108C3000726F61646361737420706F72742020209E
:108C40002020203A20002A2A42494E44494E4720FB
:108C50004552524F52212A2A0A0D002564750A0DE9
:108C6000002A2042494E44494E47204552524F5215
:108C700021202A0A0D00204D4143204241440A0D83
:108C800000202530326278002025303262780A0DCB
:108C900000204D414320474F4F442000000000007A
:108CA00000000000000000000000000000000000C4
:108CB000000D436F6E6E656374696F6E20696E613F
:108CC000637469766500444541444D414E636E745A
:108CD000203D20252D3564750D00EFB40A08740D74
:108CE00012008CE6740A309811A899B8130CC29837
:108CF0003098FDA899C298B811F63099FDC299F53F
:108D0000992210190D12006047BF0D027F0A020060
:108D10008CDA90002BA1E0FF22E4FFFE120073DC4E
:108D2000600C0FEF70010E09E970F10A80EE22006D
:108D30000000000000000090002A7EEFF01200C545
:108D4000E31200C47190000F67E0601B900002D630
:108D50007401F0A37402F074F11200C5F5740212EC
:108D600000C5587402803990000F1EE0900002D6B2
:108D700060177401F0A37402F074E91200C5F57471
:108D8000021200C558740280177401F0A37402F037
:108D9000A374DB1200C5F6A374021200C559740255
:108DA000F0A3E9F090002A7EE06402600301905095
:108DB0001200C453787E06E6700C1806E670071899
:108DC00006E67002180678831200C64D1200C3B181
:108DD0001200C3D0FF64076005EF6405702990009E
:108DE0002A7F1200C3B1241A1200C4A3120073DC3C
:108DF0006478600301A8761200C3F024191200C43D
:108E00000978717620806D90002A7F1200C3B1121C
:108E100000C3D0700301A8761200C3F01200C3DAB9
:108E200045F07003018F0D1200C3F01200C5CB7422
:108E3000FF120073F2600301A87690002A7F1200EF
:108E4000C3B1241B1200C3D2FF640860151200C313
:108E5000F01200C3D0FE64026004EEB4011DEFB452
:108E6000031990002A7F1200C3B124191200C4090B
:108E7000787176801200B3CD01A3D190002A7F12C1
:108E800000C3B1241B1200C3D2FFD3940440067E5A
:108E9000047F0480007403A807088002C333D8FC51
:108EA000FF90002A7F1200C3B11200C5CBEF120061
:108EB000C4811200C3B1241B1200C4A31200C3F06A
:108EC0001200C3D0540F147003019BA424FE601E33
:108ED00014700301A23D24FE700301A23D24FE7024
:108EE0000301A23D2406600301A87601908A1200C6
:108EF000C6B3787176041200A87D7B0190002A7FAA
:108F0000EB1200C4711200C6BFE90190AD90002AB7
:108F10007F1200C3B11200C3D0540F640360030179
:108F2000A8761200C3F0241E1200C3D27003019071
:108F30001D1200C3F01200C58C1200C6C764E07099
:108F400003EE6401600301A87690002A7F1200C33B
:108F5000B1241F1200C3D2C39404400301900E1227
:108F600000C4A71200C3F01200C4461200C3AD1221
:108F700000C5211200C62E76291200C3AD1200C50D
:108F80008C74501200742D1200C33F241A1200C3B7
:108F9000E690002A7F1200C3B1240F1200C3D2C38F
:108FA00094011200C3AC241B1200C3E6F460030159
:108FB000A67F90002A7F1200C3B1240E1200C3D2F4
:108FC000C394011200C3AC241A1200C3E6F4600378
:108FD00001A67F90002A7F1200C3B1240D1200C3A6
:108FE000D2C394011200C3AC24191200C3E6F4608A
:108FF0000301A67F90002A7F1200C3B1240C120047
:10900000C3D2C394011200C3AC241801A67B900004
:109010002A7F1200C3B11200C58CE4801C90002A84
:109020007F1200C3B11200C58C1200C6C7648070E5
:1090300003EE6407600301A8761200C44D90002A75
:109040007F1200C3B11200C4077871760801A3B182
:1090500090002A7EE0FFB4031A1200C52D8C831203
:1090600000C65E1200C43FFCA3E04C700301A8766A
:109070000194E9EF6404704090002A7F1200C3B1AC
:109080001200C3D0540F24FE700C1200C3AD1200A6
:10909000C6A5E4019BAC900008C7E020E20301A351
:1090A000B51200C6BF90002A7F1200C3B11200C6DD
:1090B00092120074CF01A4B61200C4531200C6D39A
:1090C0001200C3ADF9120073DC6445600301A87699
:1090D000E924021200C3D2FDFB7883E66B7001E441
:1090E000600BEDFE08E6FDEE18F6ED08F61200C383
:1090F000AD24031200C3D2FF7884E66F7001E460F0
:109100000818E60818F6EF08F61200C3AD24061298
:1091100000C3D2543F600301A8761200C413240791
:109120001200C3D2600301A87690000F1EE06055C4
:109130001200C70DFF4E604D1200C3AD1200C3DA1E
:10914000FDACF0C3EC94E0503CED6F7002EC6E604F
:109150000301A8761200C3AD24121200C3DCFFAED7
:10916000F07852E6FC08E6FD6F7002EE6C6016EFD8
:10917000F4600301A8761200747FE47003E5F06CDC
:10918000600301A8761200C3AD24091200C3D2FF08
:10919000640670030195D3EF64117003019244EFEC
:1091A0006401600301A876900000941200C3B1240A
:1091B000141200C3D2FF6408601EEF600301A8769A
:1091C00090000F1B1200C3B1F9EA494B700301A8CC
:1091D000761200773A01A876900000941200C3B18D
:1091E00024141200C4091200C3AD1200C3DA120025
:1091F000C4EC1200C3AD240C1200C3DCFD1200C489
:10920000131200C4951200C3AD240C1200C3FC124B
:1092100000C3AD24121200C3DC181200C4EE120009
:10922000C3AD240E1200C3DCFD1200C413241212BD
:1092300000C4971200C3AD240EF9E43AFAEE8FF0A1
:10924000020074CFE47871F6900000977400F0A3E8
:109250007401F01200C52DFDC39491EC94004003FD
:109260000193BD1200C54E1200C6611200C43FFE3C
:10927000A3E0FF4E70030193AA900000A31200C365
:10928000B124161200C3DCFDEF6D7003EE65F060D3
:10929000030193AA1200C5D21200C6001200C43FF7
:1092A000FEA3E0FF4E601C900000A3A3E0FAA3E041
:1092B00024141200C3DCFDEF6D7003EE65F0600353
:1092C0000193AA1200C4ADFD4C70071200C5134EE5
:1092D0006059BCFF14BDFF111200C5D2F582120007
:1092E000C515F47002EEF460421200C3AD240C12F6
:1092F00000C3DC1200C52AF5828C831200C4BA6F49
:109300007002EC6E60030193AA1200C413240E12C3
:1093100000C3DC1200C52AF5828C83759300A3A3D9
:10932000E0FCA3E06F7002EC6E707F1200C5D2FF0C
:109330001200C6001200C43FFCA3E04C7023900052
:1093400000A31200C3B124141200C3DCFDACF01260
:1093500000C71424061200C508ECF0A3EDF0019438
:10936000BB1200C4AD4C60030194BB1200C5134E88
:1093700060030194BB1200C3AD240C1200C3DC12C5
:1093800000C52AFDF5828C831200C5381200C3ADDA
:10939000240E1200C3DCFFAEF08D828C8375930027
:1093A000A3A3EEF0A3EFF00194BB90000098E0249B
:1093B00009F090000097E03400F0019253E47880C7
:1093C000F61200C61E400301A876900000A312000A
:1093D000C3B124161200C3DCFDEF25E02457F9EDDC
:1093E000677004E5F01967600578800680D3E4783B
:1093F00080F61200C4F740030194B11200C4C212F7
:1094000000C43FFEA3E04E60030194AB900000A3B4
:109410001200C3B124161200C3DCFFAEF0E6FD1249
:1094200000C4C31200C536900000A31200C3B124CB
:10943000141200C3DC1200C69C2407F582E4340039
:109440001200C5361200C3AD240C1200C3DC12009A
:10945000C69C2401F582E434001200C5361200C314
:10946000AD240E1200C3DC1200C69C2403F582E476
:1094700034001200C536ED75F009A42409F582E424
:109480003400F5837593007410F0ED75F009A42491
:1094900001F582E43400759300AF8290000097F0EC
:1094A000A3EFF07871E64440F680067880060193D9
:1094B000F27880E66410700301A876788474E4265C
:1094C000F61874FF36F69000134FE01200C4D27401
:1094D000F72FF974021200C4697871E64402F6E4C9
:1094E0007881F608F61200BF077882E61846700306
:1094F00001A8767882E6241C7984F718E43619F7F7
:109500007883E6FF1200C3AD1200C56608E6FF12BD
:1095100000C3AD24031200C5681200C3AD2409F9CD
:10952000E43AFA74111200742D7882E62408FF18C8
:10953000E436FE900000A31200C3B124181200C646
:1095400094120074CF900000A31200C3B1241A1229
:1095500000C4481200C5D2FF8E831200C65E1200FE
:10956000C43FFCA3E0FD1200C3AD2414F9E43AFAB1
:10957000EC1200C49D1200C7141200C6051200C4EC
:109580003FFEA3E01200C3AC24161200C3FC12007D
:10959000C70D1200C3AC240C1200C3FC08E6FE0881
:1095A000E61200C3AC240E1200C3FC1200C4ADFDD1
:1095B0001200C3AD2410F9E43AFAEC1200C49D1273
:1095C00000C5131200C3AC2412F9E43AFAEE8FF08E
:1095D00001A7E91200C57EF0A37400F0A374A6F001
:1095E0001200C3F0C3900002D69582EA958340032F
:1095F0000196C090002A7FE0FBA3A3E01200C3D035
:1096000070030196B11200C3F024041200C3DCFF02
:10961000AEF01200C3AD24161200C3DC6F7003E578
:10962000F06E60030196B190002A7F1200C3B1244E
:10963000061200C3DCFFAEF01200C3AD241412000A
:10964000C3DC6F7003E5F06E70671200C413240C66
:109650001200C3DCFFAEF090002A7F1200C3B1F904
:109660001200747F6F7003EE65F07045E9240212FA
:1096700000C3DCFFAEF01200C3AD240E1200C3DC49
:10968000B5072EE5F0B5062990002A7F1200C3B178
:109690001200C3D064076003019C0D1200C3AD2407
:1096A000211200C3D2543F64026003019C0D019952
:1096B0001590002A80E475F023120074530195E0A0
:1096C0001200C3AD24211200C3D2543F640270348F
:1096D0001200C3AD24161200C3DC786FA6F008F6A2
:1096E000E47880F61200C61E501AEF25E02439F9FE
:1096F0007870E667700418E619677003019882783D
:10970000800680E01200C3AD24211200C3D230E2F3
:109710000301A87674141200C62E76281200C3AD79
:109720001200C58C74501200742D1200C3AD241B9E
:109730001200C3D2FF7880F61200C3AD241F1200BE
:10974000C3D21200C412241B1200C5431200C3ADC1
:10975000241F1200C3E61200C3AD241A1200C3D2A4
:10976000FFF61200C3AD241E1200C3D21200C412B1
:10977000241A1200C5431200C3AD241E1200C3E612
:109780001200C3AD1200C3D0FFF61200C3AD241DFA
:109790001200C3D21200C41224191200C5431200D1
:1097A000C3AD1200C3E41200C3AD24181200C3D22B
:1097B000FFF61200C3AD241C1200C3D21200C41263
:1097C0001200C5411200C3AD241C1200C3E61200F2
:1097D000C3AD241F1200C4A370221200C413241EA0
:1097E0001200C4A370161200C413241D1200C4A3D7
:1097F000700A1200C413241C1200C4A31200C3ADCB
:1098000024141200C3DC1200C4EC1200C3AD2416F1
:109810001200C3DCFD1200C41324141200C49712FA
:1098200000C3AD24161200C3FC1200C3AD1200C366
:10983000DA1200C71E1200C3AD240C1200C3DCFDF7
:109840001200C4131200C4951200C3AD240C120000
:10985000C3FC1200C3AD24121200C3DC1200C71EE9
:109860001200C3AD240E1200C3DCFD1200C4132489
:10987000121200C4971200C3AD240E1200C3FC01E3
:10988000A7AF90002A7FE4F0A374FFF0A3F0E47880
:1098900080F61200C4F7505F1200C5B11200C43F39
:1098A000700A1200C5711200C471804B7880E6FF07
:1098B00075F0231200C5B51200C43F6407703390E1
:1098C000002A7F1200C3B1F94A601DE9241A120070
:1098D000C3D2FE75F023EFA424C0F582E5F0340076
:1098E0001200C43FD39E400A78801200C571120056
:1098F000C471788006809B90002A7F1200C3B1F962
:10990000F47002EAF4700301A876E924221200C57B
:10991000231200742D90002A7F1200C3B11200C6DA
:10992000DE1200C5CB74031200C4811200C3B1243F
:1099300018F9E43AFA74031200C4811200C3B12486
:10994000161200C40990002A7F1200C3B12417F92F
:10995000E43AFA74041200C4811200C3B1241B1249
:1099600000C4091200C3AD24161200C3DCFF90002E
:109970002A7F1200C3B124041200C5011200C401E1
:109980001200C3AD24141200C3DCFF90002A7F1222
:1099900000C3B124061200C5011200C4011200C3A5
:1099A000AD240C1200C3DCFF90002A7F1200C3B16B
:1099B000F9E5F01200C4011200C3AD240E1200C379
:1099C000DCFF90002A7F1200C3B11200C4FF120016
:1099D000C40190002A7F1200C3B11200C585740132
:1099E0001200C4811200C3B1241E1200C4099000E9
:1099F0002A7F1200C3B11200C44690002A7F1200D1
:109A0000C3B11200C407787B1200C5DC1200C3B1D9
:109A1000240C1200C3E61200C5DB1200C3B1240DF2
:109A20001200C3E61200C5DB1200C3B1240E1200FF
:109A3000C3E61200C5DB1200C3B1240F1200C3E657
:109A400090002A7F1200C3B11200C4DE1200C3AD21
:109A5000241B1200C3D2FF90002A7F1200C3B1243E
:109A60000B1200C3E61200C3AD241A1200C3D2FFCA
:109A700090002A7F1200C3B1240A1200C3E612002C
:109A8000C3AD1200C3D0FF90002A7F1200C3B124DF
:109A9000091200C3E61200C3AD24181200C3D2FF9E
:109AA00090002A7F1200C3B124081200C3E67F0190
:109AB0007E00120172F11200C3AD24221200C3D243
:109AC000FF90002A7F1200C3B1241C1200C3E612CB
:109AD00000C3AD24231200C3D2FF90002A7F1200DE
:109AE000C3B11200C3E41200C3AD24201200C3D2DC
:109AF00054F0D394505003019BA4E47880F61200F4
:109B0000C3AD24201200C3D21200C669C333CE33C2
:109B1000CED8F91200C6784003019BA4ED1200C410
:109B2000D21200C59C1200C43E787FF66076787F22
:109B3000E6FDB40104080680C5ED6402705712000A
:109B4000C4376404704F1200C4CF1200C60D120057
:109B5000C43F1200C7281200C43FFDED786F120009
:109B6000C4F01200C638C39FEC9E5006AE04AF0589
:109B70008007786FE6FE08E6FF90002A7F1200C398
:109B8000B11200C3FA90002A7F1200C3B12414124C
:109B900000C3FC800F1200C41DFF60087880EF2610
:109BA000F6019AFE1200C3AD1200C5211200742DF9
:109BB0001200C3AD24211200C3D244021200742D3E
:109BC0001200C3AD2428F9E43AFA74021200742D8D
:109BD0001200C3AD2429F9E43AFA74041200742D7A
:109BE0001200C638EC1200C3AC242A1200C3E612DD
:109BF00000C3AD242BF9E43AFAED1200C62E762C00
:109C00001200C3AD1200C58C746001A65D1200C3C2
:109C1000F01200C6DEE47871F6900008C7F012007A
:109C2000C3AD24211200C3D230E21390002A7F1268
:109C300000C3B124191200C409762001A5471200FF
:109C4000C3AD24201200C3D2C4540F25E025E0FF89
:109C50007880F6C37884E69FFF18E69400CFC3941B
:109C60001408F6EF940018F6081200C48C500D1278
:109C700000C3AD24211200C3D230E06690002A7FD9
:109C80001200C3B124081200C3A424181200C3D2C6
:109C90006F600301A64090002A7F1200C3B124091F
:109CA0001200C3A41200C3D06F600301A64090004D
:109CB0002A7F1200C3B1240A1200C3A4241A12007E
:109CC000C3D26F600301A64090002A7F1200C3B187
:109CD000240B1200C3A4241B1200C3D26F60030123
:109CE000A6401200C3AD24211200C3D220E4030118
:109CF0009F9B90002A7F1200C3B11200C3DAFDAC13
:109D0000F04C7003019F9B1200C3F0240CF9E43A5D
:109D1000FA1201603D1200C3AD241C1200C3D2FF31
:109D20009000009FE06F6003019E6D1200C4132439
:109D30001D1200C3D2FE900000A0E06E6003019EE1
:109D40006D1200C413241E1200C3D2FE900000A1A5
:109D5000E06E6003019E6D1200C413241F1200C345
:109D6000D2FE900000A2E06E6003019E6D900000A4
:109D70009F1200C6AC1200C3B1240C1200C6429060
:109D80000000A01200C6AC1200C3B1240D1200C620
:109D900042900000A11200C6AC1200C3B1240E1202
:109DA00000C642900000A21200C6AC1200C3B1244B
:109DB0000FF9E43AFAEE1200C4811200C3B1241B79
:109DC0001200C3D26003019E4F1200C3F0241A1286
:109DD00000C3D21200C3EF24181200C3D2C39EFEE8
:109DE00090002A82F01200C3F024161200C3D2138E
:109DF0001313541FFDC3EE9DFE1200C593C3EE6402
:109E0000809480500890002A82E0F404F090002AA8
:109E100082E0FE90002A7F1200C3B124171200C313
:109E2000D21313543FFDC3EE9D1200C5931200C31D
:109E3000F024161200C3D2131313541F1200C3EFE1
:109E400024171200C3D22E1200C3EF1200C54178AE
:109E500071760190002A7F1200C3B124181200C34A
:109E6000D21200C3EF1200C5CBEE019F8390002AEF
:109E70007F1200C3B1240C1200C3D26F6003019F94
:109E80009B1200C3F0240D1200C3A4241D1200C3B2
:109E9000D26F6003019F9B1200C397241E1200C360
:109EA000D26F6003019F9B90002A7F1200C3B124F0
:109EB0000F1200C3A4241F1200C3D26F6003019FBE
:109EC0009B900008C7E04480F090002A7F1200C3F6
:109ED000B1241B1200C3D26003019F671200C3F0BC
:109EE000241A1200C3D2FF1200C3F024181200C3B8
:109EF000D2C39FFF90002A82F01200C3F0241612F2
:109F000000C3D2131313541FFEC3EF9EFF1200C5EC
:109F100093C3EF64809480500890002A82E0F40498
:109F2000F090002A82E0FF90002A7F1200C3B12443
:109F3000171200C3D21313543FFEC3EF9E1200C585
:109F4000931200C3F024161200C3D2131313541F2C
:109F5000FF1200C3F024171200C3D22FFF1200C358
:109F6000F024181200C3E67871760190002A7F125F
:109F700000C3B124181200C3D2FF1200C3F01200B4
:109F8000C5CBEF1200C4811200C3B11200C44690C9
:109F9000002A7F1200C3B11200C4071200C3AD240F
:109FA000221200C3D2C39440501B90002A7F12009B
:109FB000C3B1241C1200C3D2D3948040089000087F
:109FC000C7E04440F090002A7F1200C3B11200C3E2
:109FD000D0540F14B40800400301A87690009FEB02
:109FE00075F004A4C58325F0C583730200A00B029D
:109FF00000A03B0200A1E30200A54E0200A5D5028D
:10A0000000A61E0200A6400200A52E7871E620E000
:10A010000301A8761200C707764090002A7F12003D
:10A02000C3B124101200C4481200C48A40041200B4
:10A03000A88DE47881F608F601A3B17871E620E0F6
:10A040000301A1D81200C3AD24211200C3D26412AF
:10A05000600301A1D81200C41324201200C3D254FB
:10A06000F0D39450500301A115E47880F61200C398
:10A07000AD24201200C3D21200C669C333CE33CE42
:10A08000D8F91200C678400301A115ED1200C4D220
:10A090001200C59C1200C43E787FF66078787FE697
:10A0A000FDB40104080680C5ED640270591200C4B5
:10A0B00037640470511200C4CF1200C60D1200C4E0
:10A0C0003F1200C7281200C43FFDEDFF786FEEF687
:10A0D00008EFF61200C638C39FEC9E5006AE04AFE0
:10A0E000058007786FE6FE08E6FF90002A7F1200E1
:10A0F000C3B11200C3FA90002A7F1200C3B1241426
:10A100001200C3FC800F1200C41DFF60087880EFAE
:10A1100026F601A06D90002A7F1200C3B11200C57F
:10A12000851200C7071200C3AD24181200C3D2FF66
:10A1300090002A7F1200C3B124081200C3E6120067
:10A14000C3AD1200C3D0FF90002A7F1200C3B12418
:10A15000091200C3E61200C3AD241A1200C3D2FFD5
:10A1600090002A7F1200C3B1240A1200C3E6120035
:10A17000C3AD241B1200C3D2FF90002A7F1200C37C
:10A18000B1240B1200C3E67F017E00120172F112AE
:10A1900000C3AD24221200C3D2FF90002A7F120018
:10A1A000C3B1241C1200C3E61200C3AD2423120065
:10A1B000C3D2FF90002A7F1200C3B11200C3E4781B
:10A1C00071764290002A7F1200C3B124101200C49D
:10A1D000481200C6B301A3B1787176201200B3CD46
:10A1E0000197041200C3AD24211200C3D230E05005
:10A1F0007884E62401FF18E436FE120172F17871CA
:10A2000076101200C48A40067871E64402F6120005
:10A21000A87D7B0190002A7FEB1200C4711200C45C
:10A22000DE90002A7F1200C3B11200C585740812A7
:10A2300000C4811200C3B1241B1200C40901A40C84
:10A240001200C3AD24211200C3D230E55E1200C457
:10A250001324261200C3D21200C41324271200C3F1
:10A26000D27872F6E6D3788496E41896400508E62C
:10A270007872F67872E6FF7E00120172F17872E66B
:10A28000FFC37884E69FF618E69400F690000099E4
:10A290001200C5C3A3C91200C4717872E6FF900012
:10A2A000009AE48FF012007453802AE47872F61258
:10A2B00000C3AD24261200C3D21200C412242712F8
:10A2C00000C3D2FDEDFF9000009AEE8FF0120074F3
:10A2D000531200C6D31200C48A401590002A7F1280
:10A2E00000C3B11200C3D020E4061200A88D80453F
:10A2F0007884E61846703E1200C3AD24211200C3D4
:10A30000D26410703090002A7F1200C3B1241E1254
:10A3100000C3D260201200C3F0241F1200C3D26019
:10A32000141200C3F01200C44690002A7F1200C32A
:10A33000B11200C4071200C3AD24221200C3D2120E
:10A3400000C41224231200C3D27C002400FFEC3E80
:10A35000FE786FF608EFF690002A7F1200C3B12452
:10A36000141200C3DCFDACF0D3EF9DEE9C5005E66B
:10A3700018467007786FA60408A605786FE6FE12E7
:10A3800000C5DB1200C3B11200C3FA08E654037023
:10A390000301A87690002A7F1200C3B11200C446C0
:10A3A00090002A7F1200C3B11200C4077881F6081A
:10A3B000F61200B3CD1200C5E31200C4717871E645
:10A3C00030E51B1200C64B1200C3B124191200C4A1
:10A3D000091200C3AD1200C6A5741401A648787115
:10A3E000E630E4351200C64B1200C3B11200C4DEE1
:10A3F00090002A7F1200C3B11200C58574041200B8
:10A40000C4811200C3B1241B1200C4091200C3ADE1
:10A410001200C6A5741101A648900008C7E030E1FB
:10A420000301A876D378821200C48D40667871E665
:10A4300030E00E90002A7F1200C3B124101200C435
:10A440004890002A7F1200C3B11200C3DA45F070B1
:10A450002E1200C3F024121200C3DCFFAEF0D3783A
:10A4600082E69F18E69E4005A60608A6071200C6CB
:10A47000BF90002A7F1200C3B11200C692802590BF
:10A48000002A7F1200C3B11200C3DA7881A6F00857
:10A49000F6801590002A7F1200C3B12410F9E43A27
:10A4A000FAE4F5F0120074CF90002A7F1200C3B1D5
:10A4B000241B1200C409900000911200C5C3C912E8
:10A4C00000C46DD378821200C48D404390002A7F6F
:10A4D0001200C3B11200C3DAFFAEF0D39400EE94C1
:10A4E00000402CEF24287884F6E43E18F69000080B
:10A4F000C7E0900002D630E00C1200C3B11200C6D3
:10A50000A5741880221200C3B11200C521801878EA
:10A5100071E620E10301A876788376000876281298
:10A5200000C3AD1200C5211200742D01A65378712D
:10A53000E620E00301A87690002A7F1200C3B12430
:10A54000191200C40976101200B3CD01A8761200CA
:10A55000C48A40041200A89F1200C3AD2421120037
:10A56000C3D230E0407871E690002A7F30E02212BA
:10A5700000C3B11200C4791200C3B1241A1200C47E
:10A580000990002A7F1200C3B124101200C4488031
:10A590000E1200C3B11200C58574061200742D7F1F
:10A5A000017E0080607871E630E01F90002A7F1203
:10A5B00000C3B11200C58574051200C4811200C326
:10A5C000B124101200C44801A8761200C48A5003B6
:10A5D00001A876806B1200C48A40041200A89F1262
:10A5E00000C3AD24211200C3D230E02790002A7F9F
:10A5F0001200C3B11200C4791200C3B1241A1200B0
:10A60000C4097F01FE120172F1787176101200B355
:10A61000CD802D1200C48A500301A8768022787163
:10A62000E620E00301A87690002A7F1200C3B11251
:10A6300000C4791200C3B1241A1200C40901A8761B
:10A640001200C3AD1200C5211200742D788376006C
:10A650000876281200C3AD1200C58C745012007425
:10A660002D1200C33F241A1200C3E690002A7F1265
:10A6700000C3B1240F1200C3A4241B1200C3E69030
:10A68000002A7F1200C3B124081200C3A4241C12A4
:10A6900000C3E690002A7F1200C3B124091200C350
:10A6A000A41200C3E490002A7F1200C3B1240A124E
:10A6B00000C3A4241E1200C3E690002A7F1200C328
:10A6C000B1240B1200C3A4241F1200C3E61200C35E
:10A6D000AD2409F9E43AFA74061200C4811200C3E9
:10A6E000B124041200C3DC1200C3AC24141200C550
:10A6F000011200C40190002A7F1200C3B124061287
:10A7000000C3DC1200C3AC24161200C5011200C441
:10A71000011200C70D1200C3AC240C1200C3FC08C8
:10A72000E6FE08E61200C3AC240E1200C3FC900043
:10A730002A7F1200C3B1F91200747F1200C3AC2447
:10A74000101200C5011200C40190002A7F1200C33C
:10A75000B124021200C3DC1200C3AC24121200C5E3
:10A76000011200C40190002A7F1200C3B11200C37D
:10A77000D0900002D630E4171200C3B12423120097
:10A78000C4091200C3AD2422F9E43AFAE4801C1291
:10A7900000C3B12422F9E43AFA74161200742D129F
:10A7A00000C3AD2423F9E43AFA74D01200742D7872
:10A7B00083E6FF1200C3AD1200C56608E6FF120073
:10A7C000C3AD24031200C5681200C3AD24261200D5
:10A7D000C4091200C3AD24271200C4091200C3AD7E
:10A7E0002424F9E43AFAE4F5F0120074CF1200C31D
:10A7F000ADF974451200742D1200C3AD240112008E
:10A80000C40990001350E0900002D6B4010E12006B
:10A81000C3B12406F9E43AFA7440800B1200C3B1C4
:10A820002406F9E43AFAE41200742D1200C3AD24B0
:10A83000071200C4091200C3AD2408F9E43AFA74FF
:10A84000FF1200742D785506E6187001067854E65C
:10A85000FC08E6FDEC1200C3AC24041200C3E6AF12
:10A86000051200C3AD24051200C3E61200C3AD24D7
:10A870000A1200C44822E47883F608F6221200B3D4
:10A88000CD900002D9E0FEA3E0AA06F9227871E695
:10A890004402F67883E6FE08E6FF120172F122E632
:10A8A000FE08E6FF120172F12290000F13E0FF9004
:10A8B0000029A3EFF0E4900029A6F0A3F07871E658
:10A8C0006404600301AA12900029A3E0FF75F01E42
:10A8D000A4241DF582E5F03410F583759300E0FBA8
:10A8E000A3E0FAA3E0F975F01EEFA42423F582E5B6
:10A8F000F03410F583759300EBF0A3EAF0A3E9F0D0
:10A9000075F01EEFA42417F582E5F03410F5837579
:10A910009300E0FEA3E0FF900029A3E0FD75F01E88
:10A92000A42419F582E5F03410F583759300E0FA5C
:10A93000A3E02FFFEA3EFE75F01EEDA4241BF58276
:10A94000E5F03410F583759300EE8FF01200745328
:10A95000900029A3E0FF75F01EA42411F582E5F014
:10A960003410F583759300E0FE900002D9E0FCA35B
:10A97000E0FD8C83759300240CF582E43583F58328
:10A98000759300EEF075F01EEFA42412F582E5F049
:10A990003410F583759300E0FF8D828C83759300EE
:10A9A000E582240DF582E43583F583759300EFF09D
:10A9B000900029A3E0FF75F01EA42413F582E5F0B2
:10A9C0003410F583759300E0FE8D828C83759300BF
:10A9D000E582240EF582E43583F583759300EEF06D
:10A9E00075F01EEFA42414F582E5F03410F583759C
:10A9F0009300E0FF8D828C83759300E582240FF530
:10AA000082E43583F583759300EFF0900029A774F5
:10AA100001F0900029A3E0FF75F01EA4241BF5822D
:10AA2000E5F03410F583759300E0FCA3E0FD9000A1
:10AA300029A4ECF0A3EDF075F01EEFA4240CF58230
:10AA4000E5F03410F583759300E0FF900029A3E052
:10AA5000FE75F01EA42415F582E5F03410F583751B
:10AA60009300E0FBA3E0900002D9CBF0A3EBF0ED64
:10AA70004C600301ACCA900008C7E020E70301ACBA
:10AA80005A75F01EEEA42419F582E5F03410F58312
:10AA9000759300E0FCA3E04C700301AC0190000250
:10AAA000D9E0FEA3E0FF8E83759300240CF582E4C9
:10AAB0003583F583759300E0FD900029A3E0FC75D4
:10AAC000F01EA42411F582E5F03410F5837593008F
:10AAD000EDF08F828E83759300E582240DF582E47C
:10AAE0003583F583759300E0FF75F01EECA4241206
:10AAF000F582E5F03410F583759300EFF0900002D5
:10AB0000D9E0FEA3E0FF8E83759300240EF582E466
:10AB10003583F583759300E0FD900029A3E0FC7573
:10AB2000F01EA42413F582E5F03410F5837593002C
:10AB3000EDF08F828E83759300E582240FF582E419
:10AB40003583F583759300E0FF75F01EECA42414A3
:10AB5000F582E5F03410F583759300EFF075F01E83
:10AB6000ECA42420F582E5F03410F583759300E021
:10AB7000F9A3E0FAA3E0900029A8C9F0A3EAF0A3A2
:10AB8000E9F0900029A8E0FBA3E0FAA3E0F975F052
:10AB90001EECA4241DF582E5F03410F583759300B6
:10ABA000EBF0A3EAF0A3E9F075F01EECA42419F58C
:10ABB00082E5F03410F583759300E0FEA3E0FF908A
:10ABC0000029A4EEF0A3EFF0900029A3E0FD75F0BA
:10ABD0001EA42417F582E5F03410F583759300EE7A
:10ABE000F0A3EFF075F01EEDA42419F582E5F03422
:10ABF00010F583759300E4F0A3F0900008C704807B
:10AC00004F900029A3E0FF75F01EA4241DF582E5F6
:10AC1000F03410F583759300E0F9A3E0FAA3E09017
:10AC20000029A8C9F0A3EAF0A3E9F075F01EEFA48B
:10AC30002417F582E5F03410F583759300E0FFA347
:10AC4000E0900029A4CFF0A3EFF0900008C77401B2
:10AC5000F0900029A604F001B258EFB4011D7871FC
:10AC60007610900029A3E075F01EA42409F582E572
:10AC7000F03410F5837593007403F0900029A3E07D
:10AC8000FE75F01EA4240BF582E5F03410F58375F3
:10AC90009300E0FF75F01EEEA4240AF582E5F0347F
:10ACA00010F583759300E075F00AA4246CF582E436
:10ACB000340FF583759300E0FBA3E0FAA3E0F5827F
:10ACC0008A838B937D0302007740900029A7E06080
:10ACD0000301AD94900002D9E0FEA3E0FF8E8375DE
:10ACE0009300240CF582E43583F583759300E0FD31
:10ACF000900029A3E0FC75F01EA42411F582E5F074
:10AD00003410F583759300EDF08F828E8375930078
:10AD1000E582240DF582E43583F583759300E0FF29
:10AD200075F01EECA42412F582E5F03410F583755D
:10AD30009300EFF0900002D9E0FEA3E0FF8E837550
:10AD40009300240EF582E43583F583759300E0FDCE
:10AD5000900029A3E0FC75F01EA42413F582E5F011
:10AD60003410F583759300EDF08F828E8375930018
:10AD7000E582240FF582E43583F583759300E0FFC7
:10AD800075F01EECA42414F582E5F03410F58375FB
:10AD90009300EFF0D3900029A5E09400900029A43F
:10ADA000E09400500301B3CC900029A6E0FF04F02A
:10ADB000EF9402400301B3CC900029A3E0FF75F0AB
:10ADC0001EA42423F582E5F03410F583759300E08A
:10ADD000F9A3E0FAA3E0900029A8C9F0A3EAF0A340
:10ADE000E9F0900008C7E020E70301AF3475F01EDA
:10ADF000EFA42419F582E5F03410F583759300E093
:10AE0000FCA3E0FD4C7008900008C77402F022908B
:10AE10000002DAE0240CFF900002D9E03400FAA925
:10AE2000077B011201603D9000009FE0FF9000024F
:10AE3000D9E0FCA3E0FD8C83759300240CF582E43B
:10AE40003583F583759300EFF0900000A0E0FF8D4F
:10AE5000828C83759300E582240DF582E43583F5B9
:10AE600083759300EFF0900000A1E0FF8D828C834A
:10AE7000759300E582240EF582E43583F58375939E
:10AE800000EFF0900000A2E0FF8D828C83759300AC
:10AE9000E582240FF582E43583F583759300EFF0A6
:10AEA000900029A3E0FF75F01EA42420F582E5F0B0
:10AEB0003410F583759300E0FBA3E0FAA3E0F97585
:10AEC000F01EEFA4241DF582E5F03410F583759390
:10AED00000EBF0A3EAF0A3E9F075F01EEFA424194B
:10AEE000F582E5F03410F583759300E0FEA3E0FFF2
:10AEF000900029A3E0FD75F01EA42417F582E5F06B
:10AF00003410F583759300EEF0A3EFF0900029A8BC
:10AF1000E0FBA3E0FAA3E0F975F01EEDA42420F510
:10AF200082E5F03410F583759300EBF0A3EAF0A30B
:10AF3000E901AFCE900008C7E020E60301AFD8904A
:10AF40000029A3E0FE75F01EA4240BF582E5F03481
:10AF500010F583759300E0FF75F01EEEA4240AF54A
:10AF600082E5F03410F583759300E075F00AA424AF
:10AF70006CF582E4340FF583759300E0FBA3E0FAEF
:10AF8000A3E0F5828A838B937DF1120077409000D5
:10AF900029A8E0FBA3E0FAA3E0F9900029A3E0FFD1
:10AFA00075F01EA4241DF582E5F03410F583759329
:10AFB00000EBF0A3EAF0A3E9F075F01EEFA424196A
:10AFC000F582E5F03410F583759300E4F0A3F0907A
:10AFD0000029A6E004F0804D900029A6E090002909
:10AFE000A8B4011BE0FBA3E0FAA3E0F9900029A3B9
:10AFF000E075F01EA4241DF582E5F034108019E000
:10B00000FBA3E0FAA3E0F9900029A3E075F01EA4E9
:10B010002420F582E5F03410F583759300EBF0A35E
:10B02000EAF0A3E9F0900002D9E0FEA3E08E837578
:10B0300093002412F582E43583F583759300E0FED6
:10B04000A3E0FF900008C7E030E627900029A4E4C1
:10B05000F0A304F0900029A3E075F01EA42417F5D6
:10B0600082E5F03410F583759300E4F0A304F00159
:10B07000B1A2D3900029A5E09F900029A4E09E40B2
:10B080004EEF9404FFEE9400F0A3EFF0A3E09000E5
:10B0900029A4B40118E0FEA3E0FF900029A3E07505
:10B0A000F01EA42417F582E5F034108016E0FEA30C
:10B0B000E0FF900029A3E075F01EA42419F582E5B5
:10B0C000F03410F583759300EEF0A3EFF0805C9000
:10B0D0000029A6E0FD6401705A900002D9E0FEA3A9
:10B0E000E08E837593002404F582E43583F583753F
:10B0F0009300E0FEA3E064504E7038900029A4E075
:10B10000C313FEA3E013FF900029A4EEF0A3EFF019
:10B11000900029A3E075F01EA42417F582E5F03411
:10B1200010F583759300EEF0A3EFF0E4900008C7EC
:10B13000F0806FED900029A4B40139E0FEA3E0FF98
:10B14000900029A3E0FD75F01EA42417F582E5F018
:10B150003410F583759300EEF0A3EFF075F01EED5B
:10B16000A42419F582E5F03410F583759300E4F01A
:10B17000A3F08020E0FEA3E0FF900029A3E075F09B
:10B180001EA42419F582E5F03410F583759300EEC2
:10B19000F0A3EFF0900029A6E004F0900008C77437
:10B1A00001F0900029A3E075F01EA4241BF582E5B0
:10B1B000F03410F583C083C082759300E0FEA3E0F5
:10B1C000FF900029A4E0FCA3E0FDC3EF9DFFEE9CEF
:10B1D000759300D082D083F0A3EFF0900029A8E00F
:10B1E000FBA3E0FAA3E02DF9EA3CFA900029A3E0E2
:10B1F000FF75F01EA42423F582E5F03410F5837565
:10B200009300EBF0A3EAF0A3E9F075F01EEFA4249D
:10B2100023F582E5F03410F583759300E0FBA3E09D
:10B22000FAA3E0F9C003C002C001900029A8A3E07E
:10B23000FAA3E0F9D3D082D083D0E0E99582EA95F1
:10B24000834015EF75F01EA42423F9741035F0FA2D
:10B250007B01740112007411900029A8E0F9A3E0A9
:10B26000FAA3E090000091C9F0A3EAF0A3E9F090FE
:10B270000029A4E0FEA3E0FF7881A60608A60790B7
:10B280000029A7E0B40108900008C7E04404F0904A
:10B290000029A6E06401600301B36B787176017F39
:10B2A0000412008D3790000F1EE0600B90000F67B6
:10B2B000E07004120107509000134BE0FBA3E0FA8A
:10B2C000A3E0F5828A838B93E4FFFE12007740901F
:10B2D0000002DAE0240CFF900002D9E03400FAA961
:10B2E000077B01900029A4E0FCA3E0FD1201603D72
:10B2F0009000009FE0FF900002D9E0FCA3E0FD8CED
:10B3000083759300240CF582E43583F583759300EF
:10B31000EFF0900000A0E0FF8D828C83759300E534
:10B3200082240DF582E43583F583759300EFF09068
:10B330000000A1E0FF8D828C83759300E582240ECE
:10B34000F582E43583F583759300EFF0900000A259
:10B35000E0FF8D828C83759300E582240FF582E4F3
:10B360003583F583759300EFF0803B9000134EE03A
:10B370007034787176017F0412008D3790000F1EB3
:10B38000E0600B90000F67E070041201075090001E
:10B39000134BE0FBA3E0FAA3E0F5828A838B93E4EE
:10B3A000FFFE12007740900029A3E075F01EA42450
:10B3B0001BF582E5F03410F583759300E0FFA3E000
:10B3C000900029A4CFF0A3EFF001AD9422900013D8
:10B3D0004E7401F0E490000F16F090000F13F090FF
:10B3E000000F13E0FFC39410504D75F01EEFA4241E
:10B3F00009F582E5F03410F583759300E0D39400ED
:10B40000402C90000F13E075F01EA42415F582E582
:10B41000F03410F583759300E0FEA3E0FF90000286
:10B42000D9E0FCA3E0FDEF6D7002EE6C60099000C6
:10B430000F13E004F080A890000F13E06410600385
:10B4400001B6A87871E620E60301B6A1E4A3F09066
:10B45000000F14E0FFC3940C400301B697EF75F0A2
:10B4600003A4241FF582E4340FF583759300E0FEF6
:10B47000A3E0FF4E700301B68D900002D9E0FCA35B
:10B48000E08C837593002404F582E43583F583759D
:10B490009300E0FCA3E06F7002EC6E600301B68DD8
:10B4A00090000F14E075F003A42421F582E4340F1A
:10B4B000F583759300E075F00AA42469F582E434FD
:10B4C0000FF583759300E0FBA3E0FAA3E04A4B700D
:10B4D000077871762001B985E490000F15F090008F
:10B4E0000F15E0FFC39410501E75F01EEFA4240941
:10B4F000F582E5F03410F583759300E06009900063
:10B500000F15E004F080D790000F15E0B410087814
:10B51000717620E401B985900002D9E0FEA3E0F540
:10B52000828E83759300E0FEA3E0FFE4FCFD7810BB
:10B530001200765DA804A905AA06AB07900002D9FF
:10B54000E0FEA3E0F5828E83759300A3A3E0FEA343
:10B55000E0FFE4FCFDEB2FFFEA3EFEED39FDEC38A9
:10B56000FC90000F15E0F975F01EA4240DF582E59E
:10B57000F03410F583759300120076DD900002D947
:10B58000E0FCA3E0FD75F01EE9A42415F582E5F0CA
:10B590003410F583759300ECF0A3EDF075F01EE91F
:10B5A000A4240DF582E5F03410759300AF82FE8D72
:10B5B000828C83759300E5822406F582E43583F559
:10B5C00083759300E0FCA3E0FDAB01C00390000F86
:10B5D00014E075F003A42421F582E4340FF583759B
:10B5E0009300E075F00AA42469F582E4340FF58332
:10B5F000759300E0FBA3E0FAA3E0F5828A838B93C6
:10B60000D0031200774090000F15E0FE75F01EA4E5
:10B61000240BF582E5F03410F583759300EFF0BF4D
:10B62000FF02807D90000F15E0FF900002D9E0FC42
:10B63000A3E08C837593002422F582E43583F5839F
:10B64000759300EFF075F01EEFA42409F582E5F084
:10B650003410F5837593007402F090000F14E075B8
:10B66000F003A42421F582E4340FF583759300E000
:10B67000FF75F01EEEA4240AF582E5F03410F58380
:10B68000759300EFF090000F13EEF0800A90000F1A
:10B6900014E004F001B44F90000F14E0B40C0980E2
:10B6A000007871762001BA9F7871E630E56A9000E3
:10B6B0000F13E0FF75F01EA42409F582E5F03410A5
:10B6C000F583759300E4F075F01EEFA4240BF5826A
:10B6D000E5F03410F583759300E0FF90000F13E060
:10B6E00075F01EA4240AF582E5F03410F5837593F5
:10B6F00000E075F00AA4246CF582E4340FF583753C
:10B700009300E0FBA3E0FAA3E0F5828A838B93E445
:10B71000FD1200774001BA9F7871E630E66690002E
:10B720000F13E0FF75F01EA42409F582E5F0341034
:10B73000F5837593007402F075F01EEFA4240BF5E9
:10B7400082E5F03410F583759300E0FF90000F134D
:10B75000E075F01EA4240AF582E5F03410F5837537
:10B760009300E075F00AA4246CF582E4340FF583AD
:10B77000759300E0FBA3E0FAA3E0F5828A838B9344
:10B780007D0280697871E630E76A90000F13E0FF70
:10B7900075F01EA42409F582E5F03410F583759345
:10B7A00000E4F075F01EEFA4240BF582E5F03410F0
:10B7B000F583759300E0FF90000F13E075F01EA471
:10B7C000240AF582E5F03410F583759300E075F0F6
:10B7D0000AA4246CF582E4340FF583759300E0FB32
:10B7E000A3E0FAA3E0F5828A838B93E4FD1200774D
:10B7F0004001BA9F7871E630E31E761090000F1377
:10B80000E075F01EA42409F582E5F03410F5837587
:10B8100093007403F001BA9F7871E620E10301B947
:10B82000237883E6FF08E690000F0ECFF0A3EFF039
:10B8300090000099E0F9A3E0FAA3E090000F10C98E
:10B84000F0A3EAF0A3E9F07871E630E04DA3E0FF61
:10B850001200A8AFD37882E6940018E69400403A2C
:10B8600090000F167401F07871F67F0412008D3786
:10B8700090000F1EE0600B90000F67E07004120153
:10B8800007509000134BE0FBA3E0FAA3E0F5828A97
:10B89000838B93E4FFFE12007740E47881F608F68C
:10B8A00090000F13E075F01EA4240BF582E5F03430
:10B8B00010F583759300E0FBC00390000F10A3E028
:10B8C000FAA3E0AE02FF90000F0EE0FCA3E0FD90B3
:10B8D000000F13E075F01EA4240AF582E5F0341081
:10B8E000F583759300E075F00AA4246FF582E434C3
:10B8F0000FF583759300E0FBA3E0FAA3E0F5828ADD
:10B90000838B93D0031200774090000F16E07003F2
:10B9100001B9907882E618467076900008C77402E4
:10B92000F0806D7871E630E06790000F13E0FF75EE
:10B93000F01EA42409F582E5F03410F58375930018
:10B94000E0FEB40432900002D9E0FCA3E08C8375E1
:10B9500093002419F582E43583F583759300E4F0B0
:10B9600075F01EEFA42409F582E5F03410F5837517
:10B970009300E4F001BAAD7871E630E40BEE6403B5
:10B98000600301BAB201BAAD1200A8A9E401BAADD0
:10B990007871E620E40301BAA290000F13E0FF756E
:10B9A000F01EA42409F582E5F03410F583759300A8
:10B9B000E0FEB40432900002D9E0FCA3E08C837571
:10B9C00093002419F582E43583F583759300E4F040
:10B9D00075F01EEFA42409F582E5F03410F58375A7
:10B9E0009300E4F001BA9FEEB4033590000F13E02A
:10B9F00075F01EA42409F582E5F03410F5837593E3
:10BA000000E4F0900002D9E0FEA3E08E837593007D
:10BA10002419F582E43583F583759300E4F08030D2
:10BA200090000F13E0FF75F01EA42409F582E5F0E5
:10BA30003410F583759300E0B4021575F01EEFA481
:10BA40002409F582E5F03410F5837593007404F051
:10BA500090000F13E0FE75F01EA4240BF582E5F0B4
:10BA60003410F583759300E0FF75F01EEEA4240AF0
:10BA7000F582E5F03410F583759300E075F00AA4C3
:10BA8000246CF582E4340FF583759300E0FBA3E0AA
:10BA9000FAA3E0F5828A838B93E4FD12007740E4F9
:10BAA000800B7871E630E2041200A8A9E49000133C
:10BAB0004EF0229000272A7401F0A37427F0A3749B
:10BAC0001AF09000272AE0F9A3E0FAA3E0900025FD
:10BAD000E2C9F0A3EAF0A3E9F0229000170F75F095
